S01000003370695F617070312E7372656337
S11300000C9435000C9452000C9452000C94520041
S11300100C9452000C9452000C9452000C94520014
S11300200C9452000C94F50D0C9452000C94520054
S11300300C9452000C9411090C9452000C9452002C
S11300400C9452000C9452000C94370D0C94D00D67
S11300500C9452000C9452000C9452000C945200D4
S11300600C9452000C945200B90E11241FBECFEF11
S1130070D8E0DEBFCDBF12E0A0E0B1E0EAE0F2E3F9
S113008002C005900D92AE32B107D9F726E0AEE278
S1130090B2E001C01D92AB3BB207E1F70E94DC0065
S11300A00C94F8180C9400000F931F93CF93DF93D4
S11300B08C01EB010E944D060E947C0A60E080E006
S11300C00E94A70BC8010E948B0A61E080E00E9495
S11300D0A70BCE010E948B0ADF91CF911F910F9144
S11300E008959093A00280939F0270939E02609360
S11300F09D0250939C0240939B021092A202109284
S1130100A1020895CF93DF93CDB7DEB72A970FB638
S1130110F894DEBF0FBECDBF61E0CE0101960E9410
S11301207F0E2F813885253F41E0340770F08B81A5
S11301309C81853F914048F029853A8589819A813F
S1130140A901481B590BCA0106C08B819C81A901D6
S1130150481B590BCA01E091A102F091A202E80FD9
S1130160F91FF093A202E093A10260919D027091A5
S11301709E020E94E5139B0160919B0270919C0278
S1130180CF010E94E513620F731F80919F0290912B
S1130190A002860F971F0E94760C80919F02909177
S11301A0A0020E949A0C2A960FB6F894DEBF0FBEE6
S11301B0CDBFDF91CF9108950E94970280E090E037
S11301C0089580ED97E00E94B50EECE7F0E08081A1
S11301D08F7D80830895CF93DF93CAE0D0E08EECC7
S11301E09FEF0E94760C82E390E00E949A0C81E0DB
S11301F00E94790E8AE090E00E943D0E219779F7E3
S11302000E944D06C4E1D0E082E390E00E94760CA7
S11302108EEC9FEF0E949A0C81E00E94790E8AE096
S113022090E00E943D0E219779F70E944D06CAE0A6
S1130230D0E08EEC9FEF0E94760C82E390E00E9467
S11302409A0C81E00E94790E8AE090E00E943D0EB3
S1130250219779F70E944D06DF91CF9108952F924F
S11302603F924F925F926F927F928F929F92AF9242
S1130270BF92CF92DF92EF92FF920F931F93CF938F
S1130280DF93CDB7DEB7AC970FB6F894DEBF0FBEE1
S1130290CDBF8091C802823001F50EE811E00E94C2
S11302A07C0A1982CE0101960E941F060E947C0AD4
S11302B089811F928F931F930F930E9411160E949E
S11302C04D0682E00E94F50C88EE93E00E943D0EFC
S11302D00F900F900F900F90E2CF803109F0F1C092
S11302E08CE0E5E1F1E0DE01119601900D928A9532
S11302F0E1F7FE0177968AE0DF011D928A95E9F71E
S113030080E49FE19E878D8720EB36E3388B2F872F
S113031040E85EE35A8B498B3C8B2B8B9E8B8D8BF9
S113032040E157E26EE170E082E390E00E947100E8
S113033000E010E07E01B1E2EB0EF11C3E0127E18A
S1130340620E711C262C372C6E013DE0C30ED11CAD
S1130350412C512C912C6894AA24A7F8B12C0E940A
S1130360820061E0C7010E947F0E97017CA66BA604
S1130370E22DF32DD9018D919D919D0140815181F3
S1130380840F951F81939193EE15FF0599F71F5FD5
S1130390143108F4C6C0F601842D952D192D6BA5D2
S11303A07CA521913191DB014D915C912417350796
S11303B040F49501082E02C0359527950A94E2F77A
S11303C0122BDB011D921C922BA53CA52E5F3F4FE7
S11303D03CA72BA701968530910509F7FE013196BC
S11303E0802E812F90E0219131918217930709F497
S11303F0812EEC15FD05B9F7801609F494C0882DFB
S113040090E0902B803730E2930771F40E944D0600
S113041064E971E08DE991E00E94540088EE93E074
S11304200E943D0E192D81C0811540E7940771F497
S11304300E944D0661EA71E08DE991E00E9454004A
S113044088EE93E00E943D0E192D6FC09C01377F0A
S1130450203A304271F40E944D0669EA71E08DE958
S113046091E00E94540088EE93E00E943D0E192D05
S11304705CC09F778832904271F40E944D0661EB14
S113048071E08DE991E00E94540088EE93E00E94AF
S11304903D0E192D4AC00E944D060E947C0A6AEB4B
S11304A071E08DE991E00E94540088EE93E00E948F
S11304B03D0E0E947C0A88EE93E00E943D0E192DA9
S11304C034C00F2EF3ECEF2EF1E0FF2EF02D0EE8EA
S11304D011E01D861982BE016F5F7F4FCE010D961C
S11304E00E9403050E947C0A8D851F928F93FF92C0
S11304F0EF920E94111689811F928F931F930F937D
S11305000E9411160E944D0682E00E94F50C88EEAE
S113051093E00E943D0E0FB6F894DEBF0FBECDBF30
S1130520D8CF802E02C0802E192D082D18CF0E94FE
S1130530E10062E088E00E94E80B0E947C0A60E02F
S113054080E00E94A70B8AEC91E00E948B0A61E094
S113055080E00E94A70B80ED91E00E948B0A82E06C
S11305600E94F50C88EC90E00E943D0E0E94EB0086
S113057060E072EC81E090E00E948B0D0E944806DE
S11305800E947C0A60E080E00E94A70B89ED91E064
S11305900E948B0A61E080E00E94A70B8FED91E03E
S11305A00E948B0A82E30E94090D8093C80288236B
S11305B0C9F30E942F010E944D06FFCFCF92DF9214
S11305C0EF92FF920F931F93CF93DF93CDB7DEB7D4
S11305D0A0970FB6F894DEBF0FBECDBFFE013196D3
S11305E08CE0DF011D928A95E9F780E290E09A831E
S11305F0898380E790E09C838B8380EA90E09887EE
S11306008F8388E290E09A87898780EA9FE0988FB9
S11306108F8B28E53BE13A8F298F40E45FE15C8FC3
S11306204B8F3E8F2D8F98A38F8F61E0CE010D9657
S11306300E947F0EDE011D9629EA32E063EB72E030
S1130640F9018D919D9140815181840F951F819372
S11306509193E617F707A9F78091A8028F5F80931B
S1130660A8028A30C8F1FE01779680E090E040E06D
S11306706894EE24E7F8F12C690161917191D90134
S11306800D911C916017710740F4B701082E02C048
S1130690759567950A94E2F7462BD6011D921C9234
S11306A02E5F3F4F01968530910531F71092A802D5
S11306B05091B302FE013196BE01635F7F4F242F38
S11306C030E0819191912817390709F4542FE617E6
S11306D0F707B9F75093B302A0960FB6F894DEBFAC
S11306E00FBECDBFDF91CF911F910F91FF90EF907F
S11306F0DF90CF9008952091B3023091B402231774
S113070009F4EAC0822F90E0932B2093B40280373F
S113071020E2920781F58091A702882309F4D8C0CA
S1130720813059F48093A60282E08093A7028091DD
S1130730A5028F5F8093A502CBC0833059F48093C8
S1130740A60284E08093A7028091A5028F5F809324
S1130750A502BEC0843009F0BBC08091A5028150BF
S11307608093A5028111B4C084E08093A60285E041
S11307708093A702ADC0803240E7940789F5809149
S1130780A70281110DC01092A60281E08093A702F6
S1130790109213018091A5028E5F8093A50298C0E8
S11307A0823069F48093A60283E08093A7021092BA
S11307B012018091A5028F5F8093A50289C08430C5
S11307C009F086C08091A50281508093A502811111
S11307D07FC084E08093A60285E08093A70278C05E
S11307E0811520E7920771F51092A4021092A302DA
S11307F08091A702823041F48093A60294E0909302
S1130800A7028093A50208C0843031F48093A60225
S11308108093A7028093A5020E944D060E947C0A41
S113082088EE91E09F938F930E94111682E00E94BC
S1130830F50C88EE93E00E943D0E0E947C0A0F9016
S11308400F9046C09C01377F203A304261F5809179
S1130850A702813099F42091A40281E090E0022E55
S113086002C0880F991F0A94E2F790911301892B13
S1130870809313012F5F2093A4022AC0833041F593
S11308802091A30281E090E0022E02C0880F991FFC
S11308900A94E2F790911201892B809312012F5F41
S11308A02093A30215C09F778832904289F48091E7
S11308B0A702813031F48091A4028F5F8093A40257
S11308C007C0833029F48091A3028F5F8093A30231
S11308D08091B3028093B4028091A7028230C9F15F
S11308E028F4882361F08130F9F086C0843009F45B
S11308F05AC008F443C0853009F46AC07DC00E9420
S11309007C0A82EF91E00E9427168091A5021F9233
S11309108F9387EF91E09F938F930E9411160F900E
S11309200F900F900F9068C00E947C0A8EEF91E0A8
S11309300E9427168091A5021F928F9387EF91E062
S11309409F938F930E9411160F900F900F900F900A
S113095053C00E947C0A86E092E00E942716809190
S1130960A5021F928F9387EF91E09F938F930E942C
S113097011160F900F900F900F903EC00E947C0AAA
S11309808DE092E00E9427168091A5021F928F931A
S113099087EF91E09F938F930E9411160F900F9011
S11309A00F900F9029C00E947C0A85E192E00E947A
S11309B027168091A5021F928F9387EF91E09F9352
S11309C08F930E9411160F900F900F900F9014C0E8
S11309D00E947C0A8EE192E00E9427168091A50273
S11309E01F928F9387EF91E09F938F930E9411162C
S11309F00F900F900F900F9081E09091A702953087
S1130A0009F080E008950F931F93CF93DF938C0137
S1130A10EB0140E157E264E170E082E390E00E9480
S1130A2071000E9482000E94DE020E947B038823E0
S1130A30C1F380911301F8018083809112018883AE
S1130A40809113018150813338F481E09091120137
S1130A50953018F480E001C081E0DF91CF911F91BF
S1130A600F910895CF92DF92EF92FF920F931F930D
S1130A70CF93DF93CDB7DEB7A0970FB6F894DEBF60
S1130A800FBECDBF8CE0E1E2F1E0DE0111960190F2
S1130A900D928A95E1F788EB9BE0988F8F8B28E87D
S1130AA033E13A8F298F40E45FE15C8F4B8F3E8FB7
S1130AB02D8F98A38F8F61E0CE010D960E947F0E3B
S1130AC0DE011D9626EB32E060EC72E0F9018D91B7
S1130AD09D9140815181840F951F81939193E617D5
S1130AE0F707A9F78091B5028F5F8093B5028A302A
S1130AF0C8F1FE01779680E090E040E06894EE242F
S1130B00E7F8F12C690161917191D9010D911C9162
S1130B106017710740F4B701082E02C075956795F8
S1130B200A94E2F7462BD6011D921C922E5F3F4F8A
S1130B3001968530910531F71092B5025091C202A9
S1130B40FE013196BE01635F7F4F242F30E0819117
S1130B5091912817390709F4542FE617F707B9F7C5
S1130B605093C202A0960FB6F894DEBF0FBECDBF5D
S1130B70DF91CF911F910F91FF90EF90DF90CF9075
S1130B8008952091C2028091C302281709F453C02A
S1130B90322F3695369536958091C0029091C102D8
S1130BA0880F991F82959295907F9827807F982728
S1130BB0832B9093C1028093C002880F991F2093C6
S1130BC0C3028E3725E2920721F08A3221E7920789
S1130BD029F484E08093140181E00895883425E2A7
S1130BE0920729F483E08093140181E008958C3105
S1130BF021E7920729F482E08093140181E00895AB
S1130C008A3E2FEA920799F08C3D2FEA920779F0F9
S1130C10883C2FEA920759F08A3E27E7920739F079
S1130C208C3D27E7920719F0883C974731F481E01F
S1130C3080931401089580E0089580E008950F934F
S1130C401F93CF93DF938C011092C1021092C002C4
S1130C508FEF8093140140E157E264E170E08EE18C
S1130C6090E00E947100C8ECD0E00E9482000E94D3
S1130C7032050E94C105811102C02197B1F780910C
S1130C801401F8018083DF91CF911F910F91089592
S1130C9082E292E00E947009089580E090E00E9450
S1130CA0760C80E090E00E949A0C84E690E00E942A
S1130CB03D0E089590913302E0912E02F0912F029F
S1130CC0992311F0849101C080812FEB280F2A31E0
S1130CD010F4805E0895803249F49F012F5F3F4FE6
S1130CE030932F0220932E02EF2B31F708951F9398
S1130CF0CF93DF930E945A06C0E0D0E01AE090ED53
S1130D00980F9A30B8F49E01129FE001139FD00D02
S1130D101124C80FD11D87FDDA95E09780912E022A
S1130D2090912F02019690932F0280932E020E949D
S1130D305A06E5CFCE01DF91CF911F91089510920D
S1130D406F0083E28093800081E1809381001092A0
S1130D50820080E197E2909389008093880010924A
S1130D608B0010928A00229A789408958F929F9211
S1130D70AF92BF92DF92EF92FF920F931F93CF93A4
S1130D80DF935C018B01D42E80913002811105C068
S1130D9081E0809330020E949F0610920901B7FE01
S1130DA005C0E894B7F82AE0F22E02C0FF24F394B9
S1130DB0E09081002E2D287FE22E48ECF49EC001A5
S1130DC011248A159B05E0F4E50151E1A51657E2CB
S1130DD0B50610F0C0E1D7E2BE017695679580E0D4
S1130DE090E06058794687469F4F4E01A12CB12C64
S1130DF0A50194010E94F91359018E2D816024C02C
S1130E00C8E2FC9EC02D1124D0E0CA15DB0508F40D
S1130E10E501BE01769567959E0140E050E08AE0C9
S1130E20F81207C080E090E0605E734481449F4FF5
S1130E3006C080E090E060537D4E8C4E9F4F0E9430
S1130E40F91359018E2D8260882E2AE0F21207C010
S1130E50CE0105966AE070E00E94D113EB01C83E12
S1130E6043E0D40759F09801DE010E943A1428EEB9
S1130E7033E040E050E00E941B14890110926F009F
S1130E8080928100B0928900A0928800209188000D
S1130E90309189004D2D403108F04FE080E190E021
S1130EA0841B9109A90102C0569547958A95E2F7DA
S1130EB050938B0040938A001093360200933502BE
S1130EC086B38FEF86BB81E080936F00DF91CF9173
S1130ED01F910F91FF90EF90DF90BF90AF909F9084
S1130EE08F900895CF93DF93EB018F3F11F0411161
S1130EF005C040E0BE0188EE93E043C0813130F08C
S1130F0050EF580F503618F05FE501C050E0852FC0
S1130F106CE00E94C513682F74EF760390011124CE
S1130F20250F311D2C30310540F4F901EE0FFF1F60
S1130F30E35DFE4F2081318102C020E030E0873044
S1130F4081F0082E02C0220F331F0A94E2F7823088
S1130F5028F0C90105966AE070E00CC0C9019058F8
S1130F600CC0C90136E0880F991F3A95E1F7029643
S1130F7065E070E00E94D113CB01403108F04FE0EE
S1130F80BE010E94B606DF91CF910895A2E0B0E0C1
S1130F90ECECF7E00C945E1490900801809132021E
S1130FA0882321F060913102611117C07724739472
S1130FB0B0ECAB2EBDE5BB2E1AE0612E04E0802E12
S1130FC080EDC82E87E0D82E94E0E92EF12C04EFB2
S1130FD011E02FE0422E512C15C070E040E088EE65
S1130FE093E00E94B6061092310217C18636D4F5FA
S1130FF0813609F4A9C07CF58C3309F460C08E33C2
S113100081F493940E945A0620912E0230912F026B
S11310102F5F3F4F30932F0220932E02853631F7F6
S113102052C0813209F08BC080920801D09207012E
S1131030C0920601F0920501E092040110930301AD
S11310400093020150920101409200011092320279
S1131050A4E09A2ED7CF8336A1F10CF478C010E027
S113106082E077C08D36C1F194F4873691F174F142
S11310708C3609F064C00E947706BC019093050188
S113108080930401809106019091070151C0823739
S1131090C9F14CF48F3609F052C00E947706982E9D
S11310A080930801AFCF843781F1863709F047C0B8
S11310B00E9477069093010180930001A3CF9A9434
S11310C0A1CF10E020C010E084E043C010E085E030
S11310D040C010E087E03DC00E945A068C3619F4E7
S11310E01092320204C070923202109231022091A6
S11310F02E0230912F022F5F3F4F30932F02209307
S11311002E0280CF11E080E024C00E947706BC014B
S1131110C5010E94D113669EC001679E900D1124E3
S11311209093070180930601609104017091050179
S11311300E94D113709303016093020163CF109254
S11311402F0210922E0269C010E089E002C010E064
S11311508BE0082F9CE0999E000D11240E945A06F2
S1131160982F977F933261F420912E0230912F02B1
S11311702F5F3F4F30932F0220932E020F5FEECF4D
S11311808D3271F420912E0230912F022F5F3F4F48
S113119030932F0220932E0201500E945A06F0CF62
S11311A060910201709103018153883050F4E09002
S11311B00601F09007010E947706BC01C7010E9456
S11311C0D1137B01F694E79469837A830E945A06CB
S11311D069817A818E3269F420912E0230912F0236
S11311E02F5F3F4F30932F0220932E026E0D7F1DF1
S11311F0E9CF80913202882339F09B0136952795F7
S113120020933102621B710940910001112311F0F6
S11312108FEF01C0802F0E9472072296E0E10C94A8
S11312207A141F920F920FB60F9211242F933F93AB
S11312304F935F936F937F938F939F93AF93BF93DA
S1131240EF93FF9380913502909136029C012150D7
S113125031093093360220933502892B11F510920F
S11312606F00789480918100887F816080938100F1
S113127080E197E2909389008093880010928B001C
S113128010928A0081E08093090180912E0290914E
S11312902F02892B31F080913402811102C00E9407
S11312A0C607FF91EF91BF91AF919F918F917F916D
S11312B06F915F914F913F912F910F900FBE0F90BF
S11312C01F90189510926F0090932F0280932E0216
S11312D081E080933302109231020E94C607089580
S11312E00E946209089580E090E0089581E090E012
S11312F06F9364E06A95F1F76F910197C9F70895C8
S11313000F931F93CF93DF931AB157985A98289A43
S1131310C0E0D0E00E9476095C9A0E94760909B187
S11313205C980E9476095C9A0E9476095C982496DF
S113133007FF10C0AE0160E070E080913702909129
S11313403802A0913902B0913A02481759076A0746
S11313507B0700F31AB9DF91CF911F910F91089584
S113136095B1282F217030E0220F331F482F46708B
S113137068E0469FA0011124242B9D7C292B25B9CC
S11313809BB188708295807F9F77892B8BB95C9AFB
S11313900E9476095C980E9476090895A0E0B0E066
S11313A0E4EDF9E00C946714C82FD62EE42E809156
S11313B0C402811105C081E08093C4020E94140A12
S11313C00E94800914B1D5B1FAB00BB12898DD2080
S11313D011F05A9A01C05A9894B1926394B9579AE9
S11313E081E0E81629F08C2F82958F700E94B00955
S11313F08C2F8F700E94B009FAB80BB914B9D5B903
S1131400CDB7DEB7E7E00C94831442E060E00E94BD
S1131410CE09089542E061E00E94CE09089541E0BA
S113142060E00E94CE09089580E197E2A0E0B0E078
S11314308093370290933802A0933902B0933A0212
S1131440529A209A549A8EE190E00E943D0E83E0D5
S11314500E940F0A86E090E00E943D0E83E00E9405
S11314600F0A82E090E00E943D0E83E00E940F0A82
S113147082E090E00E943D0E82E00E940F0A82E02A
S113148090E00E943D0E88E20E94050A88E00E94D6
S1131490050A81E00E94050A86E00E94050A8CE0A4
S11314A00E94050A089581E00E94050A80913D0288
S11314B090913E02892BF9F060E0A0E2262F30E003
S11314C070910A0180910B0190E00197789FA0012F
S11314D0799F500D1124241735074CF4E0913D02F7
S11314E0F0913E02E20FF31FA0836F5FE7CF1092EB
S11314F03B0210923C0208950E94530A0895CF9330
S1131500DF93EC018991882319F00E940A0AFACF2B
S1131510DF91CF9108950E947F0A0895A5E0B0E07D
S1131520E4E9FAE00C946B14182F80E8898380ECCA
S11315308A8384E98B8384ED8C83FE01E60FF11D9D
S11315408181810F6D830E94050A10933B026D8196
S113155060933C022596E3E00C948714FF920F936A
S11315601F93CF93DF93C82F80913D0290913E0249
S1131570892B49F48C2F992787FD9095CDB7DEB739
S1131580E5E00C948514CA3009F43EC0C830C1F4B7
S113159080913B02815080933B028F3F51F48091B4
S11315A03C02815080933C0280910A0181508093D7
S11315B03B0280913C028F3FC1F510923C0233C044
S11315C08C2F0E940A0A80913C028823A1F090E0AB
S11315D0019740910A01489F9001499F300D1124C1
S11315E080913B02E0913D02F0913E02E20FF31F35
S11315F0E80FF11DC08380913B028F5F80933B0213
S113160090910A018913B6CF40913C02842F90E057
S113161020910B0130E0215031098217930761F0CA
S11316204F5F40933C0210923B0260913C028091D8
S11316303B020E948E0A9ECFD0E060910B01862F60
S113164090E002972D2F332727FD3095281739076F
S11316508CF56D2F80E00E948E0AF12C20910A01F6
S1131660F21630F50F2D10E03D2F3203C001112486
S1131670E0913D02F0913E02E00FF11FE80FF91FE7
S113168080810E940A0AE0913D02F0913E0220917D
S11316900A013D2F3203C0011124E00FF11FE80FAE
S11316A0F91FDF01A20FB11D8C918083F394D6CF73
S11316B0DF5FC3CF623040F460910B01615080E082
S11316C00E948E0AD0E039C0625080E00E948E0AE7
S11316D0D0E060E2F62E40910A01D41768F70D2F8E
S11316E010E020910B0130E022503109429FC001EB
S11316F0439F900D1124E0913D02F0913E02E00FD2
S1131700F11FE80FF91F80810E940A0A20910B0142
S113171030E02250310940910A01429FC001439FA9
S1131720900D1124E0913D02F0913E02E00FF11F73
S1131730E80FF91FF082DF5FCECF80910A01D8173E
S113174008F071CF80E20E940A0ADF5FF6CF0E94A0
S11317508E0A089580913D0290913E02009711F007
S11317600E942E1520910A0180910B0190E00197AF
S1131770AC01249FC001259F900D11240E9499144F
S113178090933E0280933D02892B09F160E0A0E230
S1131790262F30E070910A0180910B0190E00197AF
S11317A0789FA001799F500D1124241735074CF41C
S11317B0E0913D02F0913E02E20FF31FA0836F5FC0
S11317C0E7CF63E779E08EEA9AE00E94C6150895B0
S11317D080930A0160930B010E94AA0B089588303C
S11317E058F491E001C0990F8A95EAF7892FAAE28B
S11317F0B0E0EBE2F0E021C08E3060F498EF980F97
S113180081E001C0880F9A95EAF7A4E2B0E0E5E22E
S1131810F0E013C0853160F492EF980F81E001C0CD
S1131820880F9A95EAF7A7E2B0E0E8E2F0E005C095
S113183080E0A0E0B0E0E0E0F0E06F3F19F49081D8
S1131840982709C0662319F09081982B04C0208141
S1131850982F9095922390839C91982B9C93089514
S113186083EF8093B00084BD82E08093B10085BD96
S11318701092B4001092B30018BC17BC60E086E06C
S11318800E94EF0B60E085E00E94EF0B60E08BE0CC
S11318900E94EF0B60E083E00E94EF0B08958091BB
S11318A0C502811105C081E08093C5020E94300CFD
S11318B00895CF93DF93EC010E944F0CD7FF05C02E
S11318C0D195C195D10981E001C080E0CF3FD10518
S11318D019F014F0CFEFD0E0882319F018BCC7BD7D
S11318E002C0C8BD17BCDF91CF9108950E94590C66
S11318F00895CF93DF93EC010E944F0CD7FF05C0EE
S1131900D195C195D10981E001C080E0CF3FD105D7
S113191019F014F0CFEFD0E0882329F01092B4002E
S1131920C093B30004C0C093B4001092B300DF911D
S1131930CF9108950E94790C089584B18D7C84B967
S113194085B1826385B985E090E06F9364E06A9520
S1131950F1F76F910197C9F708958091C60281113B
S113196005C081E08093C6020E949D0C08951F93D8
S1131970CF93DF93182F0E94AD0CC12FD0E023B179
S113198030E0209530952C233D23232BC1F38AE0AE
S113199090E00E943D0E23B130E0209530952C2339
S11319A03D23232B61F383B180958123DF91CF9174
S11319B01F910895CF93C82F0E94AD0C83B18C233F
S11319C0E9F38AE090E00E943D0E83B18C23B1F3E9
S11319D083B18C23CF910895CF930E94B70CC82F65
S11319E00E94DA0C8C2FCF9108950E94EC0C08957C
S11319F0A1E0B0E0EEEFFCE00C946C1489830E944B
S1131A00AD0C93B19095898189232196E2E00C94E1
S1131A1088140E94F80C0895282F30E09AE0899FDA
S1131A20F0011124E15CFD4F80859185009721F040
S1131A3052814481541780F08AE0829FF001839F91
S1131A40F00D1124E15CFD4F9281848198130EC046
S1131A50858181110AC008954281DC01A40FB11D62
S1131A606C9382818F5F8283E7CF128208951F92E5
S1131A700F920FB60F9211242F933F934F935F93BE
S1131A806F937F938F939F93AF93BF93EF93FF9342
S1131A906091C60080E00E940C0DFF91EF91BF9110
S1131AA0AF919F918F917F916F915F914F913F91F2
S1131AB02F910F900FBE0F901F9018959AE0899F59
S1131AC0F0011124E15CFD4F86819781892B59F047
S1131AD091818381981738F48081811104C08091A9
S1131AE0C100806203C08091C1008F7D8093C100DA
S1131AF008959AE0899FF0011124E15CFD4F9081E3
S1131B00911102C098E901C098E19093C1000E942C
S1131B105E0D78940895CF92DF92EF92FF926B015D
S1131B207C0180E00E94790DA8EFBFEFA701960128
S1131B300E945714735D8E4C9E4FE4E0220F331FB6
S1131B40441F551FEA95D1F70E94F9133093C5003D
S1131B502093C400FF90EF90DF90CF9008959AE017
S1131B60899FF0011124E15CFD4F26813781211505
S1131B70310541F041819381491720F49091C000CF
S1131B8095FD03C00E945E0D08959181D901A90FAE
S1131B90B11D9C919093C60091819F5F9183F2CF78
S1131BA01F920F920FB60F9211242F933F934F93CE
S1131BB05F936F937F938F939F93AF93BF93EF93B1
S1131BC0FF9380E00E94AF0DFF91EF91BF91AF9121
S1131BD09F918F917F916F915F914F913F912F9141
S1131BE00F900FBE0F901F9018952F928F939F9375
S1131BF02FB6809150029091510201968093500229
S1131C009093510290E080915202891F8093520276
S1131C1090914A029C5F90934A02809149028051BC
S1131C209742C0F090934A028093490280914B02FC
S1131C3090914C02019680934B0290934C0290E059
S1131C4080914D02891F80934D0280914E02891F1D
S1131C5080934E022FBE9F918F912F90189528EE5E
S1131C6033E0019748F0F9016F9364E06A95F1F766
S1131C706F913197C9F7F5CF08950E942F0E0895FB
S1131C80E0E7F0E080818E7F8083A0EBB0E08C9170
S1131C9083608C93A1EBB0E08C91807F8C938C91CA
S1131CA082608C93B89A808181608083789408954F
S1131CB08091C702811105C081E08093C7020E9410
S1131CC0400E08950E94580EE0E7F0E080818E7F78
S1131CD0808310924B0210924C0210924D0210928B
S1131CE04E0210924A0210924902808181608083E0
S1131CF00895682F83E592E00E9461120895462FAB
S1131D0020E0BC0183E592E00E94321308950F9312
S1131D10CF93DF9300D000D01F92CDB7DEB79C01E4
S1131D2085E0E5E4F1E0DE01119601900D928A95DB
S1131D30E1F7662311F00FEF01C003E145E0BE01B6
S1131D406F5F7F4F83E592E00E94590F83E592E035
S1131D500E94300F0E94620E0F900F900F900F9010
S1131D600F90DF91CF910F91089560E00E94870E4C
S1131D70089583E592E00E94A71308956F9364E0A9
S1131D806A95F1F76F910197C9F70895FC011182E3
S1131D90108213821282158214821682683068F4CB
S1131DA089E290E0918380838BE290E09383828345
S1131DB08AE290E0958384831FC06E3070F483E2DE
S1131DC090E09183808385E290E09383828384E230
S1131DD090E09583848368500FC0653198F486E25F
S1131DE090E09183808388E290E09383828387E20A
S1131DF090E0958384836E5081E001C0880F6A95DA
S1131E00EAF786830895A7E0B0E0E9E0FFE00C94E8
S1131E106A148C01FC0111821082138212821582D1
S1131E20148217821682613118F080E1808702C023
S1131E30FC016087F801208B642FCE0101960E947B
S1131E40C60E8F81F80181878B819C81938782875D
S1131E508D819E81958784872796E4E00C9486146F
S1131E60FC01A485B585109779F08C919185892B17
S1131E708C93A285B3859C918185809589238C93CD
S1131E8088EC90E00E94BE0E0895FC01A485B585FF
S1131E90109771F08C919185892B8C93A285B385D1
S1131EA08C919185892B8C9388EC90E00E94BE0ED6
S1131EB00895A7E0B0E0EFE5FFE00C945F147C0127
S1131EC04B01642F3901402F20E00E94030F87014A
S1131ED00F5B1F4FF80110826701F2E4CF0ED11C93
S1131EE0F60110825701F3E4AF0EB11CF501108224
S1131EF0F70177866686512CF7018085581650F5D0
S1131F00652C712CF401E60DF71D6081CE0101965C
S1131F100E94C60E2F81F701E60DF71D218B8981E2
S1131F209A81F301EE0FFF1FEE0DFF1D92A381A313
S1131F308332910511F4F80108C08632910511F439
S1131F40F60103C0899721F4F5018081822B8083F7
S1131F505394D2CF2796EFE00C947B14A0E0B0E02A
S1131F60E4EBFFE00C946114EC015B016C0181E48F
S1131F70C80ED11CF60180807E01F2E4EF0EF11C44
S1131F80F70170808E010D5B1F4FF801908080E097
S1131F909885891748F4F501E80FF11DE80FF11D44
S1131FA0118210828F5FF4CF84B1F6019081892B66
S1131FB084B987B1F7019081892B87B98AB1F80177
S1131FC09081892B8AB985B1F6019081892B85B9D5
S1131FD088B1F7019081892B88B98BB1F801908180
S1131FE0892B8BB98AE090E00E94BE0E94B1F60171
S1131FF080818095892384B997B1F7018081809588
S1132000892387B99AB1F8018081809589238AB997
S113201095B1F60180818095892385B998B1F7013E
S113202080818095892388B99BB1F801808180954E
S113203089238BB9E090B000D090B1008091B000BA
S113204083608093B00082E08093B1004091B2003D
S113205080E090E02E853F858217930720F5C0909D
S1132060B2002C2D241B820F911D03B1081132C024
S1132070F6B0F7102FC029B129112CC010C0212FA0
S113208030E0A901440F551FF501E40FF51F6081ED
S11320907181672B21F11F5F2885121780F37F2C34
S11320A0802E4C2DD7CFE092B000D092B10020E02A
S11320B08885281730F5F501E20FF11DE20FF11DB7
S11320C080819181892B21F48E859F8591838083E2
S11320D02F5FEECF03B1F6B099B010E0DDCFDE0193
S11320E0A40FB51F91960D90BC91A02D4C91DE01CB
S11320F0A20FB31F51962C91422369F691838083DA
S1132100CACFCDB7DEB7EDE00C947D14EF92FF9209
S11321100F931F93CF93DF93FC019B01F0907C00FE
S113212000917A0047B118B180917A0086FDFCCF06
S113213080E09085891748F4D901A80FB11DA80F34
S1132140B11D1D921C928F5FF4CF97B182A180952F
S1132150892387B998B182A18095892388B987E8B2
S113216080937A00E12C81A1E81610F0E12C29C0BB
S113217050E08085581718F5A52FB0E0EF01CA0F7D
S1132180DB1F8989806480937C0080917A0080645D
S113219080937A0080917A0086FDFCCF609178006C
S11321A070917900AA0FBB1FA20FB31F8D919C9150
S11321B01197860F971F8D939C935F5FDACFE394FB
S11321C0D2CF8085E816A0F4E901CE0DD11DCE0D45
S11321D0D11D61A170E0CB0195958795A881B98146
S11321E08A0F9B1F0E94D11379836883E394E9CFFC
S11321F0F0927C0000937A0018B947B9CDB7DEB7E6
S1132200E6E00C948414A0E2B0E0E9E0F1E10C947F
S113221067148C017B01D42E8FEF840F823018F465
S1132220C8010E94450FD80150968C91B7018111C5
S113223010C0C8010E94AE0FC8010E94300FB2E066
S1132240DB123AC0BE016F5F7F4FC8010E94AE0F20
S11322500FC0C8010E948610C8010E94300FE2E03E
S1132260DE122AC0BE016F5F7F4FC8010E94861034
S113227040E0F80180854817F8F4842F90E0880F37
S1132280991FF701E80FF91F21E030E02C0F3D1FE3
S1132290820F931FD8011E962D913C911F97DC014C
S11322A08D919C91281B390B80819181820F931F02
S11322B0918380834F5FDDCFA096E7E00C94831475
S11322C02F923F925F926F927F928F929F92AF92E2
S11322D0BF92CF92DF92EF92FF920F931F93CF930F
S11322E0DF93CDB7DEB7C056D1090FB6F894DEBF81
S11322F00FBECDBF8C014B015A01522EDA018D91D4
S11323009C91892B31F0F40180819181892BF1F426
S113231024C0D80118968C9190E0880F991F0E94D0
S11323209914F50191838083009709F4B1C0FC01ED
S113233020E030E0D80118968C9190E028173907F6
S113234014F7119211922F5F3F4FF4CFE12CF12C2F
S11323506E01B1E2CB0ED11C21C0F801808590E062
S1132360880F991F0E949914D4018D939C93009710
S113237009F48EC0FC0120E030E0D80118968C915D
S113238090E02817390714F7D8011E968D919C9177
S11323901F97819391932F5F3F4FEFCF452DBE0140
S11323A06F5B7F4FC8010E940311F8016084712C98
S11323B0FE01EF5BFF4FC6019E012F5F3F4F1901E6
S11323C020E030E0261537054CF5E114F10489F0DE
S11323D0DC016D917C91408151816417750748F04F
S11323E0D1016D917C91408151814617570748F086
S11323F00DC040815181DC014D935C93E114F104E3
S113240079F740815181D1014D935C932F5F3F4F08
S1132410B2E02B0E311C32960296D4CFEFEFEE1AB7
S1132420FE0AFAE0EF16F10409F0B8CF9E012F5F1F
S11324303F4F7901360180E090E0F801208530E0DB
S1132440821793072CF5D7012D913D917D01B3019E
S11324506C197D09D501ED91FC91E60FF71F4081C0
S113246051814217530710F431832083F3012191E2
S113247031913F01D401ED91FC91E60FF71F4081AA
S113248051812417350710F4318320830196D5CF69
S1132490C05ADF4F0FB6F894DEBF0FBECDBFDF9139
S11324A0CF911F910F91FF90EF90DF90CF90BF904D
S11324B0AF909F908F907F906F905F903F902F9000
S11324C008951F93CF93DF93EC01162F8FEF860FA0
S11324D0823018F0662359F014C021E0AE014E5F3B
S11324E05F4FBE01CE010E946011123051F4AE0163
S11324F04A5F5F4FBE016C5F7F4F20E0CE010E94B8
S11325006011DF91CF911F910895A0E0B0E0EBE856
S1132510F2E10C946514EC018B01B42E842F8D7FB1
S113252051F48C819D81892B09F497C08E819F8100
S1132530892B09F492C08FEF8B0D823050F488817F
S11325409981892B09F489C08A819B81892B09F49B
S113255084C04B2DB801CE010E940311780100E024
S113256010E0C12CD12C888590E0C816D9060CF057
S113257074C081E0B8120AC0EA81FB81E00FF11F48
S11325800190F081E02DA881B9810DC08C819D81DD
S11325902E813F81B1100CC0F901E00FF11F0190B1
S11325A0F081E02DDC01A00FB11F8D919C9128C01A
S11325B0FC01E00FF11F40815181E881F981E00FB6
S11325C0F11F80819181EE85FF854817590710F42A
S11325D0CF0104C08E0F9F1F841B950BD901A00F40
S11325E0B11F2D913C91AA81BB81A00FB11F4D91C8
S11325F05C912417350720F0E40FF51FE21BF30B61
S1132600E81BF90BA9F0D7012D913C9140E050E073
S1132610281B390B41095109A8EEB3E00E94491463
S11326209F0140E050E00E941B1437FD0AC002C025
S113263020E030E0293EB3E03B072CF028EE33E005
S113264002C020E030E0F701219331937F01FFEFD6
S1132650CF1ADF0A0E5F1F4F86CFCDB7DEB7E9E092
S11326600C948114A0E0B0E0E8E3F3E10C945C1472
S1132670EC018B01822E0E9485122884E801412CF2
S1132680512C320100E010E0C12CD12C7601312C08
S1132690912C58EEA52E53E0B52E921421F1E99118
S11326A0F991882021F0C5018E1B9F0BFC01E93CA8
S11326B0F10524F4E333F10574F002C033243394B8
S11326C0DF01A30192010E945414C60ED71EE81E16
S11326D0F91E0E0F1F1F939498EE490E93E0591E96
S11326E0611C711CDACF31101EC0492D50E04150DD
S11326F0510924EF31E0429FC001439F900D529F46
S1132700900D1124209197023091980228173907CF
S1132710B4F088EE93E0489F9001499F300D589F94
S1132720300D11240EC0980140E050E0C701B601FD
S11327300E94F913309398022093970202C020E07C
S113274030E0C901CDB7DEB7E2E10C947814CF9341
S1132750DF93EC018A819B81009711F00E942E1572
S11327608E819F81009711F00E942E158881998196
S1132770009711F00E942E158C819D81009711F015
S11327800E942E15DF91CF910895991B79E004C022
S1132790991F961708F0961B881F7A95C9F780959C
S11327A00895AA1BBB1B51E107C0AA1FBB1FA61794
S11327B0B70710F0A61BB70B881F991F5A95A9F7E6
S11327C080959095BC01CD01089597FB072E16F4D2
S11327D0009407D077FD09D00E94D11307FC05D0DF
S11327E03EF4909581959F4F0895709561957F4F24
S11327F00895A1E21A2EAA1BBB1BFD010DC0AA1F3E
S1132800BB1FEE1FFF1FA217B307E407F50720F055
S1132810A21BB30BE40BF50B661F771F881F991FD0
S11328201A9469F760957095809590959B01AC0119
S1132830BD01CF010895052E97FB1EF400940E945C
S1132840321457FD07D00E94F91307FC03D04EF44D
S11328500C94321450954095309521953F4F4F4F2D
S11328605F4F089590958095709561957F4F8F4F38
S11328709F4F0895A29FB001B39FC001A39F700D05
S1132880811D1124911DB29F700D811D1124911D74
S113289008950E943A14A59F900DB49F900DA49F93
S11328A0800D911D11240895B7FF0C9449140E94C2
S11328B04914821B930B08952F923F924F925F927B
S11328C06F927F928F929F92AF92BF92CF92DF923C
S11328D0EF92FF920F931F93CF93DF93CDB7DEB7A1
S11328E0CA1BDB0B0FB6F894DEBF0FBECDBF099435
S11328F02A88398848885F846E847D848C849B848C
S1132900AA84B984C884DF80EE80FD800C811B8199
S1132910AA81B981CE0FD11D0FB6F894DEBF0FBEC8
S1132920CDBFED010895EE0FFF1F0590F491E02D4A
S11329300994CF93DF938230910510F482E090E004
S1132940E091B306F091B40620E030E0C0E0D0E0BE
S1132950309711F14081518148175907C0F0481749
S1132960590761F482819381209719F09B838A83AC
S11329702BC09093B4068093B30626C0211531056D
S113298019F04217530718F49A01BE01DF01EF0151
S11329900280F381E02DDCCF2115310509F1281BDC
S11329A0390B2430310590F412968D919C91139734
S11329B06115710521F0FB019383828304C0909318
S11329C0B4068093B306FD01329644C0FD01E20FC4
S11329D0F31F81939193225031092D933C933AC074
S11329E02091B1063091B206232B41F420910E01BF
S11329F030910F013093B2062093B10620910C015F
S1132A0030910D012115310541F42DB73EB74091A8
S1132A10100150911101241B350BE091B106F09186
S1132A20B206E217F307A0F42E1B3F0B2817390751
S1132A3078F0AC014E5F5F4F2417350748F04E0F16
S1132A405F1F5093B2064093B1068193919302C0E5
S1132A50E0E0F0E0CF01DF91CF9108950F931F9351
S1132A60CF93DF93009709F48CC0FC013297138253
S1132A7012820091B3061091B4060115110581F478
S1132A8020813181820F931F2091B1063091B206CB
S1132A902817390779F5F093B206E093B10671C0AF
S1132AA0D80140E050E0AE17BF0750F412962D91C4
S1132AB03C911397AD012115310509F1D901F3CFEB
S1132AC09D01DA013383228360817181860F971F10
S1132AD08217930769F4EC0128813981260F371F87
S1132AE02E5F3F4F318320838A819B81938382832E
S1132AF0452B29F4F093B406E093B30642C0139631
S1132B00FC93EE931297ED01499159919E01240F84
S1132B10351FE217F30771F480819181840F951FAB
S1132B20029611969C938E938281938113969C9323
S1132B308E931297E0E0F0E0D80112968D919C916B
S1132B401397009719F0F8018C01F6CF8D919C91A1
S1132B5098012E5F3F4F820F931F2091B106309151
S1132B60B2062817390769F4309729F41092B4068D
S1132B701092B30602C0138212821093B20600931D
S1132B80B106DF91CF911F910F9108950F931F9379
S1132B90CF93DF93009731F46115710519F480E048
S1132BA090E03AC08B01EC016EE070E081E090E0CF
S1132BB00E942918FC01892B91F380E88383011575
S1132BC0110571F01387028781E883838091B5062C
S1132BD09091B606892B21F4F093B606E093B506DE
S1132BE02097C9F0D187C0878381826083838091D5
S1132BF0B7069091B806892B71F4F093B806E09368
S1132C00B7068091B9069091BA06892B21F4F09306
S1132C10BA06E093B906CF01DF91CF911F910F91CE
S1132C200895A0E0B0E0E7E1F6E10C946C14AE0185
S1132C304B5F5F4FFA0161917191AF018091B706CB
S1132C409091B8060E945716E2E00C9488140F93F2
S1132C501F93CF93DF93E091B706F091B8062381D9
S1132C6021FF1BC08C01D0E0C0E0F80181918F01ED
S1132C706091B7067091B806DB011896ED91FC914E
S1132C801997882331F00995892B79F3DFEFCFEF7A
S1132C90ECCF8AE00995892B19F08FEF9FEF02C0E2
S1132CA08D2F9C2FDF91CF911F910F910895ACE050
S1132CB0B0E0EDE5F6E10C945C147C016B018A0153
S1132CC0FC0117821682838181FFBDC1CE0101966A
S1132CD04C01F7019381F60193FD859193FF819156
S1132CE06F01882309F4ABC1853239F493FD8591D2
S1132CF093FF81916F01853229F4B70190E00E941E
S1132D006218E7CF512C312C20E02032A0F48B3212
S1132D1069F030F4803259F0833269F420612CC0B8
S1132D208D3239F0803339F4216026C0226024606A
S1132D3023C0286021C027FD27C030ED380F3A306A
S1132D4078F426FF06C0FAE05F9E300D1124532E5E
S1132D5013C08AE0389E300D1124332E20620CC03B
S1132D608E3221F426FD6BC1206406C08C3611F42A
S1132D70206802C0883641F4F60193FD859193FFE3
S1132D8081916F018111C1CF982F9F7D955493300C
S1132D9028F40C5F1F4FFFE3F9830DC0833631F035
S1132DA0833771F0833509F05BC022C0F80180815C
S1132DB089830E5F1F4F44244394512C540115C042
S1132DC03801F2E06F0E711CF801A080B18026FF7B
S1132DD003C0652D70E002C06FEF7FEFC5012C8743
S1132DE00E9457182C0183012C852F77222E17C09F
S1132DF03801F2E06F0E711CF801A080B18026FF4B
S1132E0003C0652D70E002C06FEF7FEFC5012C8712
S1132E100E9445182C012C852068222E830123FC56
S1132E201BC0832D90E048165906B0F4B70180E228
S1132E3090E00E9462183A94F4CFF50127FC859142
S1132E4027FE81915F01B70190E00E946218311062
S1132E503A94F1E04F1A51084114510471F7E5C056
S1132E60843611F0893639F5F80127FF07C06081EF
S1132E707181828193810C5F1F4F08C060817181D1
S1132E80072E000C880B990B0E5F1F4F2F76722EA6
S1132E9097FF09C090958095709561957F4F8F4FEE
S1132EA09F4F2068722E2AE030E0A4010E949A18F5
S1132EB0A82EA81844C0853729F42F7EB22E2AE004
S1132EC030E025C0F22FF97FBF2E8F36C1F018F401
S1132ED0883579F0B4C0803719F0883721F0AFC055
S1132EE02F2F2061B22EB4FE0DC08B2D8460B82E1E
S1132EF009C024FF0AC09F2F9660B92E06C028E09F
S1132F0030E005C020E130E002C020E132E0F80109
S1132F10B7FE07C060817181828193810C5F1F4F6E
S1132F2006C06081718180E090E00E5F1F4FA401B4
S1132F300E949A18A82EA818FB2DFF777F2E76FEE4
S1132F400BC0372D3E7FA51450F474FE0AC072FCEA
S1132F5008C0372D3E7E05C0BA2C372D03C0BA2CCD
S1132F6001C0B52C34FF0DC0FE01EA0DF11D8081B6
S1132F70803311F4397E09C032FF06C0B394B39490
S1132F8004C0832F867809F0B39433FD13C030FF57
S1132F9006C05A2CB31418F4530C5B18B32CB31496
S1132FA068F4B70180E290E03C870E946218B39411
S1132FB03C85F5CFB31410F43B1801C0312C34FF19
S1132FC012C0B70180E390E03C870E9462183C8500
S1132FD032FF17C031FD03C088E790E002C088E5E6
S1132FE090E0B7010CC0832F867859F031FF02C0FE
S1132FF08BE201C080E237FD8DE2B70190E00E94D0
S11330006218A51438F4B70180E390E00E946218B6
S11330105A94F7CFAA94F401EA0DF11D8081B70107
S113302090E00E946218A110F5CF332009F451CE2C
S1133030B70180E290E00E9462183A94F6CFF7015B
S11330408681978102C08FEF9FEF2C96E2E10C946A
S113305078140F931F93CF93DF93869F8001879FEC
S1133060100D969F100D1124C8010E949914EC01B3
S1133070009729F0A80160E070E00E945018CE018A
S1133080DF91CF911F910F910895FC01059061503C
S113309070400110D8F7809590958E0F9F1F08956A
S11330A0DC0101C06D9341505040E0F70895FC01EC
S11330B06150704001900110D8F7809590958E0F63
S11330C09F1F08950F931F93CF93DF93FB012381D9
S11330D021FD03C08FEF9FEF28C022FF16C0468159
S11330E05781248135814217530744F4A081B1816B
S11330F09D012F5F3F4F318320838C93268137813D
S11331002F5F3F4F3783268310C0EB01092F182F01
S11331100084F185E02D0995892BE1F68E819F814C
S113312001969F838E83812F902FDF91CF911F91E2
S11331300F910895FA01AA27283051F1203181F125
S1133140E8946F936E7F6E5F7F4F8F4F9F4FAF4FAB
S1133150B1E03ED0B4E03CD0670F781F891F9A1FBE
S1133160A11D680F791F8A1F911DA11D6A0F711D72
S1133170811D911DA11D20D009F468943F912AE07E
S1133180269F11243019305D3193DEF6CF01089566
S1133190462F4770405D4193B3E00FD0C9F7F6CF97
S11331A0462F4F70405D4A3318F0495D31FD40525F
S11331B0419302D0A9F7EACFB4E0A69597958795F5
S11331C077956795BA95C9F70097610571050895D4
S11331D09B01AC010A2E0694579547953795279580
S11331E0BA95C9F7620F731F841F951FA01D089518
S11331F010E0C4E3D0E004C0FE010E9493142196C1
S10D3200C533D107C9F7F894FFCFD6
S113320A0F00F4010400D007040108020000BB0601
S113321A2000FFFFFF2000700000002000A000280B
S113322A002000A80070004700C800F8009C01B5FF
S113323A01CF01EA0107022602470269028E02B59A
S113324A02DE020A030E0F10111220202D2D2D204A
S113325A5354415254202D2D2D0A002C2000202095
S113326A2D2D2D20454E44202D2D2D0A00507265FA
S113327A73732041004275662066756C6C00507247
S113328A696E74696E6700526573656E64005348AB
S113329A3D25750042435F53544152540045563A02
S11332AA0042435F53544F50004C454654424954DC
S11332BA005249474854424954004661696C0045E2
S11332CA4E440042433D25750A00507265737300EB
S11332DA427574746F6E20410052656164790050BE
S11332EA72657320414243005475726E696E672E8B
S11332FA2E00494E49540064683A20257500524507
S113330A41445F42430046494E5F424300524541AD
S113331A445F53480046494E5F524541440046497A
S111332A4E00214C3136205638206364650075
S9030000FC
